:020000040800F2
:100000009006002065040008690200086B020008E1
:100010006F02000873020008770200080000000069
:100020000000000000000000000000007B0200084B
:100030007D020008000000007F0200088102000825
:100040007F0400087F0400087F0400087F04000884
:100050007F0400087F0400087F0400087F04000874
:100060007F0400087F0400087F0400087F04000864
:100070007F0400087F0400087F0400087F04000854
:100080007F0400087F0400087F0400087F04000844
:100090007F0400087F0400087F0400087F04000834
:1000A0007F0400087F0400087F0400087F04000824
:1000B0007F0400087F0400087F0400087F04000814
:1000C0007F0400087F0400087F0400087F04000804
:1000D0007F0400087F0400087F0400087F040008F4
:1000E0007F0400087F0400087F04000800F002F885
:1000F00000F040F80AA090E8000C82448344AAF182
:100100000107DA4501D100F035F8AFF2090EBAE87F
:100110000F0013F0010F18BFFB1A43F0010318473B
:100120006C1100008C110000103A24BF78C878C10F
:10013000FAD8520724BF30C830C144BF04680C60ED
:10014000704700000023002400250026103A28BF35
:1001500078C1FBD8520728BF30C148BF0B60704739
:100160001FB501F08BF89DE8030000F0ABFF1FBD49
:1001700010B510BD01F002F81146FFF7F1FF00F0D5
:1001800009F801F020F803B4FFF7F2FF03BC01F017
:100190004BF8000086B04FF0000501A800F08EFE7D
:1001A00000F0D8F8482000F029FE00F081FE00F0B1
:1001B000D9FD4FF400512A4800F012FB00F006FE72
:1001C00000BF11E0A81D0122824091B2254800F035
:1001D000E5FA0446012C05D1A8B20090694601A8B1
:1001E00000F085FE05F101050A2DEBDB37E0039CED
:1001F00031E02088801D0122824091B2194800F030
:10020000CDFA012800D101E04FF00000C6B20EBBCC
:1002100022880120904081B2114800F0DFFA0A20C4
:1002200000F003FE22880120904081B20C4800F0CB
:10023000D7FA0DE02088801D0122824091B2094842
:1002400000F0ACFA012800D101E04FF00000C6B286
:10025000002EEFD1A46801A88442CAD100BFC6E72E
:1002600000080140000C0140704700BFFEE700BFDE
:10027000FEE700BFFEE700BFFEE77047704770472C
:10028000704700004FF0000108466D4A126842F4C2
:1002900080326B4B1A6000BF694A126802F400306A
:1002A00001F1010110B9B1F5A06FF5D1644A1268EE
:1002B00012F4003F02D04FF0010001E04FF00000C7
:1002C000012842D15F4A126842F010025D4B1A6069
:1002D0001A46126822F003021A601A46126842F0A7
:1002E00002021A60564A5268554B5A601A465268C2
:1002F0005A601A46526842F480625A601A4652683E
:1003000022F47C125A601A46526842F4E8125A608B
:100310001A46126842F080721A6000BF484A12689A
:1003200012F0007FFAD0464A526822F00302444B92
:100330005A601A46526842F002025A6000BF404AB0
:10034000526802F00C02082AF9D1704710B5FFF785
:1003500099FF10BD10B53A48006840F001003849D7
:10036000086008464068384900EA0100344948609E
:1003700008460068354900EA01003149086008462E
:10038000006820F4802008600846406820F4FE00E1
:1003900048604FF41F008860FFF7D8FF4FF00060FF
:1003A0002B49086010BD10B54FF000010846024609
:1003B000234B5B6803F00C0121B1042906D0082906
:1003C0002CD107E0234B244C23602BE0214B224C03
:1003D000236027E01A4B5B6803F47010184B5B68CE
:1003E00003F480324FF0020303EB90402AB91B4B19
:1003F00000FB03F3184C23600FE0114B5B6813F410
:10040000003F05D0154B00FB03F3134C236004E0C1
:10041000104B00FB03F3104C236003E00D4B0E4C1C
:10042000236000BF00BF064B5B68C3F303130C4C93
:10043000E15C094B1B6823FA01F3074C236010BDF4
:1004400000100240002002400000FFF8FFFFF6FE0F
:1004500008ED00E000127A000000002000093D00D5
:10046000040000200948804709480047FEE7FEE7EE
:10047000FEE7FEE7FEE7FEE7FEE7FEE7FEE7FEE754
:1004800004480549054A064B70470000550300081B
:10049000ED0000089000002090060020900200204F
:1004A00090020020384940EA0101384A1160704743
:1004B00070B54FF000010B464FF00F02C4784CB3FB
:1004C000324C246804F4E064C4F5E0644FEA14217B
:1004D000C1F1040322FA01F2447804FA03F18478AA
:1004E00004EA020444EA01014FEA0111284C0678AB
:1004F000A155047804F01F054FF0010404FA05F437
:1005000005784FEA65154FF0E02606EB8505C5F83E
:1005100000410CE0047804F01F054FF0010404FAD8
:1005200005F41C4D06784FEA661645F8264070BD66
:10053000194A01EA020242EA0002184B1A607047A7
:1005400031B1174A126842EA0002154B1A6005E001
:10055000134A126822EA0002114B1A6070470428FD
:1005600008D14FF0E021096941F004014FF0E02289
:10057000116107E04FF0E021096921F004014FF01B
:10058000E0221161704700000000FA050CED00E068
:1005900000E400E080E100E080FFFF1F08ED00E0E4
:1005A00010ED00E010B50446DE48844208D1012178
:1005B000042000F07FFB0021042000F07BFB46E0DC
:1005C000D948844208D10121082000F073FB0021A2
:1005D000082000F06FFB3AE0D448844208D10121A2
:1005E000102000F067FB0021102000F063FB2EE0DC
:1005F000CF48844208D10121202000F05BFB00217C
:10060000202000F057FB22E0CA48844208D1012193
:10061000402000F04FFB0021402000F04BFB16E093
:10062000C548844208D10121802000F043FB00210D
:10063000802000F03FFB0AE0C048844207D101213E
:10064000801500F037FB0021A01500F033FB10BD32
:1006500010B50121084600F02DFB0021012000F01B
:1006600029FB10BD2DE9F04102464FF000052E4652
:10067000284603460446074691F803C00CF00F05D0
:1006800091F803C01CF0100F03D091F802C04CEA9F
:100690000505B1F800C01CF0FF0F35D014684FF00D
:1006A00000002EE04FF0010C0CFA00F3B1F800C08E
:1006B0000CEA03069E4222D14FEA80034FF00F0C52
:1006C0000CFA03F724EA070405FA03FC4CEA0404D5
:1006D00091F803C0BCF1280F06D14FF0010C0CFAC1
:1006E00000FCC2F814C00AE091F803C0BCF1480F46
:1006F00005D14FF0010C0CFA00FCC2F810C000F15B
:1007000001000828CED31460B1F800C0BCF1FF0F7F
:1007100038DD54684FF0000031E000F1080C4FF074
:10072000010808FA0CF3B1F800C00CEA03069E4277
:1007300023D14FEA80034FF00F0C0CFA03F724EAA1
:10074000070405FA03FC4CEA040491F803C0BCF169
:10075000280F05D100F1080C08FA0CF8C2F8148033
:1007600091F803C0BCF1480F07D100F1080C4FF01D
:10077000010808FA0CF8C2F8108000F101000828FE
:10078000CBD35460BDE8F0814FF6FF7101804FF08C
:10079000020181704FF00401C170704702464FF0B2
:1007A000000093680B4202D04FF0010001E04FF0CF
:1007B000000070470146886880B2704702464FF0DB
:1007C0000000D3680B4202D04FF0010001E04FF06F
:1007D000000070470146C86880B2704701617047E9
:1007E000416170470AB1016100E041617047C16039
:1007F00070474FF4803242EA010282618161826176
:1008000082698269704702464FF000004C4B1868BD
:100810004FF6807300EA030040EA021040EA01004C
:10082000474B186070474749C8617047F0B50A46A2
:100830004FF000031C4619460D4600F00046B6F185
:10084000004F02D13E4EF16901E03D4E7168C0F3A8
:10085000034583B200F44016B6F5401F08D121F0DD
:100860007061374E766826F07066354F7E6017E00F
:1008700000F48016B6F5801F08D14FF0030606FA83
:1008800005F421EA040141F0706109E04FEA505695
:100890004FEA061603FA06F621EA060141F07061F6
:1008A0003AB14FEA50564FEA061603FA06F646EA00
:1008B000010100F00046B6F1004F02D1204EF16177
:1008C00001E01F4E7160F0BD30B54FF000024FEAFD
:1008D00081734FEA13744FF00F0303FA04F21A4BBB
:1008E0004FEAA10453F8243023EA0203164C4FEADE
:1008F000A10544F8253023464FEAA10453F82430DB
:100900004FEA81744FEA147400FA04F443EA0403D2
:100910000D4C4FEAA10544F8253030BD0B49086065
:100920007047000000080140000C01400010014029
:100930000014014000180140001C0140002001404B
:10094000000001400000204208000140DC0020427D
:10095000F748006840F00100F54908600846406823
:10096000F44900EA0100F249486008460068F2498B
:1009700000EA0100EE4908600846006820F4802083
:1009800008600846406820F4FE0048604FF41F00ED
:1009900088607047E649096821F48031E44A1160B3
:1009A0001146096821F480211160B0F5803F03D021
:1009B000B0F5802F0ED106E0DD49096841F48031A1
:1009C000DB4A116007E0DA49096841F4A021D84AFE
:1009D000116000E000BF00BF704710B501464FF046
:1009E0000002134610464FEA6112012A02D1D04C90
:1009F000236806E0022A02D1CD4C236A01E0CC4CE8
:100A0000636A01F01F024FF0010404FA02F41C4271
:100A100002D04FF0010001E04FF0000010BD70B5B2
:100A20004FF000042546264600BF3120FFF7D5FFD2
:100A3000064604F10104B4F5A06F01D0002EF4D0F5
:100A40003120FFF7CAFF10B14FF0010501E04FF070
:100A50000005284670BD01464FF00000B44A1068FA
:100A600020F0F80040EAC10010607047B349086008
:100A7000704702464FF00000AD4B586820F47C10E0
:100A800042EA010343EA0000A94B58607047AB49B2
:100A90000866704701464FF00000A54A506820F0F4
:100AA000030040EA010050607047A148406800F030
:100AB0000C00704701464FF000009D4A506820F03E
:100AC000F00040EA01005060704701464FF000001E
:100AD000974A506820F4E06040EA01005060704797
:100AE00001464FF00000924A506820F4605040EAFE
:100AF000C1005060704731B18D4A527A42EA00021B
:100B00008B4B5A7208E08A4A527A6FEA0003DBB2D2
:100B100002EA0302864B5A7270478949086070479F
:100B200001464FF00000824A506820F4404040EAFD
:100B30000100506070474FF00001824A11707C4AFA
:100B400082F82010012802D004280AD104E04FF0D6
:100B500001017C4A117005E04FF00501794A1170DE
:100B600000E000BF00BF70477749086070477049D8
:100B7000096A41EA00016E4A1162704773490860D0
:100B8000704730B54FF000010A460C460B46684DE1
:100B90006D6805F00C0121B1042905D0082927D181
:100BA00005E06B4D056026E0694D056023E0604D72
:100BB0006D6805F470125E4D6D6805F480344FF079
:100BC000020505EB924224B9624D02FB05F5056072
:100BD0000DE0574D6D6815F4003F04D05D4D02FBEC
:100BE00005F5056003E05A4D02FB05F5056002E0DE
:100BF000574D056000BF00BF4D4D6D6805F0F00119
:100C00004FEA1111544D6B5C056825FA03F54560F8
:100C1000474D6D6805F4E0614FEA11214E4D6B5C64
:100C2000456825FA03F58560414D6D6805F460510E
:100C30004FEAD121484D6B5C456825FA03F5C56044
:100C40003B4D6D6805F440414FEA9131434D6B5C7B
:100C5000C568B5FBF3F5056130BD31B1344A526961
:100C600042EA0002324B5A6105E0314A526922EAF7
:100C700000022F4B5A61704731B12D4A926942EA06
:100C800000022B4B9A6105E0294A926922EA000290
:100C9000274B9A61704731B1254AD26942EA000276
:100CA000234BDA6105E0224AD26922EA0002204B96
:100CB000DA61704731B11E4AD26842EA00021C4B29
:100CC000DA6005E01A4AD26822EA0002184BDA60BC
:100CD000704731B1164A126942EA0002144B1A6198
:100CE00005E0134A126922EA0002114B1A617047AB
:100CF0001B49086070471149C86470470C49C871A6
:100D000070470B48406A40F080700949486270475C
:100D100001464FF00000064A92680A4202D04FF0A6
:100D2000010001E04FF000007047014988727047F0
:100D3000001002400000FFF8FFFFF6FE00004242F4
:100D4000D800424220100240800442423C04424209
:100D500000127A0000093D00140000202400002049
:100D60004004424208B501211548FFF75FFD01210B
:100D70000420FFF781FF44F2FF30ADF800004FF090
:100D800010008DF803004FF003008DF80200694653
:100D90000C48FFF767FC01211020FFF76DFF4FF4AF
:100DA0004040ADF800004FF010008DF803004FF008
:100DB00003008DF8020069460348FFF753FC08BDA5
:100DC00000023000000801400010014008B5012178
:100DD0000820FFF751FF4FF6C070ADF800004FF04C
:100DE00003008DF802004FF028008DF803006946DB
:100DF0000148FFF737FC08BD000C014010B5044660
:100E00006FF00400FFF7ABFB4FEAE47104EB5171A4
:100E10004FEAE101244A1170104600784FF47A71CC
:100E200000FB01F02149088010BD01461F4A1288CD
:100E300001FB02F24FF0E0235A614FF000029A6189
:100E40004FF001021A6100BF4FF0E022106910F06C
:100E5000010F02D010F4803FF6D04FF000024FF0A7
:100E6000E0231A619A61704701460F4A127801FB2C
:100E700002F24FF0E0235A614FF000029A614FF006
:100E800001021A6100BF4FF0E022106910F0010F5B
:100E900002D010F4803FF6D04FF000024FF0E02374
:100EA0001A619A6170470000280000202A00002083
:100EB00010B54FF4A060FFF7F5FA10BD4FF00C012C
:100EC000C1604FF00001016140608060704770B503
:100ED0000446A56804E0AE68284600F0ADF8354643
:100EE000A542F8D14FF00000A060606070BD70B501
:100EF00004460E46E06800F070F8050001D1401E7F
:100F000070BD308828806C60A068A860A0684560CB
:100F1000A560206900F1010020614FF00000EFE7BB
:100F200070B505460C46D4E901108860D4E901018A
:100F300048602869A0F101002861204600F07CF893
:100F400070BD2DE9F04104460F461646A56807E03E
:100F500031462846B84710B92846BDE8F081AD684B
:100F6000A542F5D10020F8E708B5026800920A888A
:100F70000280BDF800200A8008BD2DE9F047044634
:100F80000E464FF0000522E0D4F808804FF000092B
:100F90004FF0010A4F460FE0D8F808904946404606
:100FA000B047012805D149464046FFF7DDFF4FF025
:100FB000000AC84607F101072069401B401EB842DD
:100FC000EADCBAF1010F00D104E005F10105206966
:100FD000A842D9DC00BFBDE8F08770B5064600F036
:100FE00055F8056806F10B0020F00704B4429CBFD9
:100FF000002070BD2B466A68BAB11068A04210D3B9
:1010000004F1080188423CBF5068586007D351681A
:10101000101941601168091B016058601460101DAF
:1010200070BD13465268002AE7D12146284600F0D9
:1010300035F80028DED170BD70B50446051F00F0FC
:1010400025F80068002C14BF446870BD002C18BF40
:10105000A54284BF20466468F8D801680A18AA42ED
:1010600018BF456003D12A6805461144016028680D
:101070004119A1421CBF6C6070BD61686960216844
:101080000844286070BD704770477047004870473B
:1010900034000020704770477047704738B50446E9
:1010A0000A4600206946AFF30080002808BF38BD1B
:1010B00002460099204600F03FF8012038BD01208B
:1010C00000F054B8F8B5AFF30080054600200C4698
:1010D000102000BF0646A819A0420DD93246694625
:1010E0000020AFF30080070008BF00F03FF8009831
:1010F000A04218BF0546C419FFF7C8FF05600746A0
:10110000F01D20F007004619284600F00AF8B44206
:1011100008BFF8BDA21B31463868BDE8F84000F0B2
:101120000BB800210160C0E9011070471020704722
:10113000004870472C000020034640688C46002879
:1011400018BF814284BF03464068F8D81868184425
:10115000884207D00CF1030020F00700001D411A5F
:10116000521A0146081D0A60FFF766BF10B500F06D
:1011700035F8BDE8104000F02CB870477546FFF711
:10118000D7FFAE4605006946534620F00700854666
:1011900018B020B5FFF774F9BDE820404FF0000605
:1011A0004FF000074FF000084FF0000B21F007014F
:1011B000AC46ACE8C009ACE8C009ACE8C009ACE892
:1011C000C0098D4670470446AFF300802046FEF705
:1011D000DAFF002801D000F027B87047002110B5D1
:1011E000012800D102A108A000F024F8012010BDC0
:1011F0003A2048656170206D656D6F727920636F6C
:10120000727275707465640053494752544D454D70
:101210003A204F7574206F662068656170206D6597
:101220006D6F72790000000001491820ABBEFEE727
:101230002600020070B505460C460A2000E06D1C31
:1012400000F011F835B128780028F8D102E0641CCC
:1012500000F009F814B120780028F8D1BDE87040FA
:101260000A20AFF3008008B569468DF8000003201E
:10127000ABBE08BD004870473000002010B5FFF736
:10128000F9FF4FF00001016010BD0000AC12000832
:10129000000000202C00000028010008D8120008DF
:1012A0002C000020640600004401000800A24A044B
:1012B0000000000000000000010203040607080906
:1012C00000000000010203040102030406070809EC
:0812D000020406080000000002
:04000005080000ED02
:00000001FF
