:020000040800F2
:100000007808002041050008450300084703000860
:100010004B0300084F0300085303000800000000D2
:10002000000000000000000000000000570300086E
:1000300059030008000000005B0300085D0300088E
:100040005B0500085B0500085B0500085B05000810
:100050005B0500085B0500085B0500085B05000800
:100060005B0500085B0500085B0500085B050008F0
:100070005B0500085B0500085B0500085B050008E0
:100080005B0500085B0500085B0500085B050008D0
:100090005B0500085B0500085B0500085B050008C0
:1000A0005B0500085B0500085B0500085B050008B0
:1000B0005B0500085B0500085B0500085B050008A0
:1000C0005B0500085B0500085B0500085B05000890
:1000D0005B0500085B0500085B0500085B05000880
:1000E000A51E00085B0500085B05000800F002F88B
:1000F00000F03CF80AA090E8000C82448344AAF186
:100100000107DA4501D100F031F8AFF2090EBAE883
:100110000F0013F0010F18BFFB1A43F0010318473B
:100120003C2000005C200000103A24BF78C878C151
:10013000FAD8520724BF30C830C144BF04680C60ED
:10014000704700000023002400250026103A28BF35
:1001500078C1FBD8520728BF30C148BF0B60704739
:100160001FB501F0F3FF1FBD10B510BD01F0BBFFBF
:100170001146FFF7F5FF00F070F801F0D9FF03B466
:10018000FFF7F2FF03BC01F01FFD000070B505464C
:100190004FF0000400BF12E035F814004FEA4401AC
:1001A00001F103015D4A505435F814004FEA102064
:1001B0004FEA440101F10201505404F101040A2CF8
:1001C000EADB01F0BBFE554908704FF00A004870A9
:1001D0004FF01601514801F039FF504988754FF032
:1001E0000A00C87570BD2DE9F04107460D46164658
:1001F0004FF0000400BF08E0295D384601F030FDF3
:10020000012001F0DAFE04F10104B442F4DBBDE8A0
:10021000F08110B54FF00002104600BF1AE04FF019
:1002200000010AE001EB81033D4C04EB830333F84A
:1002300010301A4401F10103D9B21429F2DB4FF056
:10024000140392FBF3F3374C24F810304FF0000204
:1002500000F101000A28E2DB10BD00F0E9F84820B7
:1002600001F094FE01F0ECFE01F076FC4FF001008D
:100270002D4908604FF416512C4801F0B2FC01F0F2
:10028000FFFC01F02DFE2A49C823254A294801F028
:1002900093FD0121274800F025FD012124484C3819
:1002A00000F094FA4FF48051234800F03DFF4FF4E2
:1002B0007A7001F082FE4FF480511F4800F036FF43
:1002C0004FF000001D49C1F8A40101F0A9FD322042
:1002D00001F092FE21E01A48007801281DD1022089
:1002E00000F01EFDC8B14FF001000F490860FFF794
:1002F00090FF0C48FFF74AFF182208490B48FFF708
:1003000072FF4FF000000E4908700C49C1F8A401BB
:100310004FF48051084800F009FFDCE7D4010020C9
:1003200030000020C0010020A4012242003801401A
:100330004C24014008000240000801400000224215
:1003400000000020704700BFFEE700BFFEE700BFCF
:10035000FEE700BFFEE77047704770477047000038
:100360004FF0000108466D4A126842F480326B4B30
:100370001A6000BF694A126802F4003001F10101FD
:1003800010B9B1F5A06FF5D1644A126812F4003FBC
:1003900002D04FF0010001E04FF00000012842D1EF
:1003A0005F4A126842F010025D4B1A601A461268EA
:1003B00022F003021A601A46126842F002021A6022
:1003C000564A5268554B5A601A4652685A601A4645
:1003D000526842F480625A601A46526822F47C12D3
:1003E0005A601A46526842F4E8125A601A46126875
:1003F00042F080721A6000BF484A126812F0007F13
:10040000FAD0464A526822F00302444B5A601A4618
:10041000526842F002025A6000BF404A526802F03D
:100420000C02082AF9D1704710B5FFF799FF10BDEB
:1004300010B53A48006840F00100384908600846A5
:100440004068384900EA01003449486008460068BD
:10045000354900EA0100314908600846006820F487
:10046000802008600846406820F4FE0048604FF491
:100470001F008860FFF7D8FF4FF000602B4908602D
:1004800010BD10B54FF0000108460246234B5B68D3
:1004900003F00C0121B1042906D008292CD107E072
:1004A000234B244C23602BE0214B224C236027E07C
:1004B0001A4B5B6803F47010184B5B6803F48032CE
:1004C0004FF0020303EB90402AB91B4B00FB03F3F0
:1004D000184C23600FE0114B5B6813F4003F05D00C
:1004E000154B00FB03F3134C236004E0104B00FB9F
:1004F00003F3104C236003E00D4B0E4C236000BF50
:1005000000BF064B5B68C3F303130C4CE15C094B63
:100510001B6823FA01F3074C236010BD0010024052
:10052000002002400000FFF8FFFFF6FE08ED00E0AB
:1005300000127A000400002000093D00080000209D
:100540000948804709480047FEE7FEE7FEE7FEE767
:10055000FEE7FEE7FEE7FEE7FEE7FEE704480549A3
:10056000054A064B7047000031040008ED00000802
:100570007802002078080020780400207804002009
:10058000384940EA0101384A1160704770B54FF0B0
:1005900000010B464FF00F02C4784CB3324C246874
:1005A00004F4E064C4F5E0644FEA1421C1F10403EB
:1005B00022FA01F2447804FA03F1847804EA02048E
:1005C00044EA01014FEA0111284C0678A15504784C
:1005D00004F01F054FF0010404FA05F405784FEA12
:1005E00065154FF0E02606EB8505C5F800410CE0E7
:1005F000047804F01F054FF0010404FA05F41C4DC3
:1006000006784FEA661645F8264070BD194A01EA99
:10061000020242EA0002184B1A60704731B1174AD1
:10062000126842EA0002154B1A6005E0134A12688C
:1006300022EA0002114B1A607047042808D14FF0DB
:10064000E021096941F004014FF0E022116107E067
:100650004FF0E021096921F004014FF0E02211611F
:10066000704700000000FA050CED00E000E400E037
:1006700080E100E080FFFF1F08ED00E010ED00E0EA
:1006800010B50446FA48844208D10121401500F013
:10069000B7FF0021601500F0B3FF17E0F548844272
:1006A00008D10121001500F0ABFF0021201500F05A
:1006B000A7FF0BE0F048844208D10121C80300F0F5
:1006C0009FFF00214FF4004000F09AFF10BD30B5AD
:1006D00002464FF0000003465068E84C00EA040070
:1006E0000D790C6844EA052444EA000050609068E3
:1006F000E34C00EA0400D1E9025444EA05044D79D0
:1007000044EA450444EA00009060D06A20F4700096
:100710000C7CA4F10104E4B244EA030340EA035070
:10072000D06230BD4FF00001016001714171816004
:10073000C1604FF001010174704721B1826842F03D
:100740000102826003E0826822F001028260704749
:1007500021B1826842F48072826003E0826822F4F0
:1007600080728260704710B54FF00003CBB222B1A7
:10077000446844EA0304446003E0446824EA030450
:10078000446010BD816841F00801816070470146F6
:100790004FF000008A6812F0080F02D04FF00100FD
:1007A00001E04FF000007047816841F00401816072
:1007B000704701464FF000008A6812F0040F02D023
:1007C0004FF0010001E04FF00000704721B1826856
:1007D00042F4A002826003E0826822F4A0028260F8
:1007E000704701464FF000008A6812F4800F02D073
:1007F0004FF0010001E04FF00000704710B50A46CD
:100800004FF000010B46416821F46041A2F1010361
:1008100041EA4331416010BD21B1426842F40062B7
:10082000426003E0426822F4006242607047F0B523
:1008300004460D464FF000000146092D14DDE06826
:10084000A5F10A0606EB46074FF0070606FA07F180
:1008500020EA0100A5F10A0606EB460603FA06F1B6
:1008600040EA0100E0600FE0206905EB45074FF02A
:10087000070606FA07F120EA010005EB450603FA30
:1008800006F140EA01002061072A14DA606BA2F148
:10089000010606EB86074FF01F0606FA07F120EA6D
:1008A0000100A2F1010606EB860605FA06F140EA10
:1008B000010060632AE00D2A14DA206BA2F107061A
:1008C00006EB86074FF01F0606FA07F120EA010043
:1008D000A2F1070606EB860605FA06F140EA0100DA
:1008E000206313E0E06AA2F10D0606EB86074FF0E5
:1008F0001F0606FA07F120EA0100A2F10D0606EB39
:10090000860605FA06F140EA0100E062F0BD21B179
:10091000826842F48012826003E0826822F48012CE
:10092000826070470146C86C80B2704750484C30B6
:100930000068704721B1426842F48062426003E07F
:10094000426822F480624260704721B1426842F4FA
:100950008052426003E0426822F480524260704755
:100960000A464FF00001816821F4E04141EA0201AA
:100970008160704721B1826842F40042826003E0E6
:10098000826822F400428260704721B1826842F49A
:100990000212826003E0826822F4021282607047D1
:1009A00001464FF000008A6812F4001F02D04FF099
:1009B000010001E04FF000007047F0B50446154615
:1009C0004FF0000002460646092914DDE068A1F157
:1009D0000A0707EB470C4FF0070707FA0CF220EA6B
:1009E0000200A1F10A0707EB470703FA07F240EA02
:1009F0000200E0600FE0206901EB410C4FF00707B7
:100A000007FA0CF220EA020001EB410703FA07F2B1
:100A100040EA02002061A06BC0F3015605F1030714
:100A200006F1010CA7EB0C0707EB870C4FF01F0733
:100A300007FA0CF220EA020005F1030706F1010CA7
:100A4000A7EB0C0707EB870701FA07F240EA020061
:100A5000A063F0BD10B50A464FF000010B46816B54
:100A600021F44011A2F1010341EA0351816310BD59
:100A70000024014000280140003C0140FFFEF0FF3F
:100A8000FDF7F1FF10B54FF0000303460B441A6069
:100A900010BD02464FF00003134601F12800034445
:100AA000186880B270470A464FF000014168284B31
:100AB00001EA030141EA020141607047416282623A
:100AC00070470A464FF00001416821F01F0141EADA
:100AD00002014160704730B11E49096841F40001CC
:100AE0001C4A116005E01B49096821F40001194AFC
:100AF0001160704702464FF0000013680B4202D0AD
:100B00004FF0010001E04FF0000070476FEA010272
:100B10000260704770B502464FF00000034604467D
:100B20004FEA21235568CEB205EA060415681D4236
:100B300003D014B14FF0010001E04FF0000070BD90
:100B40004FF000024FEA21226FEA02030360704770
:100B5000FFFD3FFF0824014001684FF6FE7201EAE5
:100B6000020101604FF00001016041608160C160DD
:100B70008849884206D18849496841F00F01864A70
:100B8000516078E083491431884206D1824949682E
:100B900041F0F001804A51606DE07E492831884281
:100BA00006D17D49496841F470617B4A516062E039
:100BB00078493C31884206D17749496841F470410F
:100BC000754A516057E073495031884206D17249E5
:100BD000496841F47021704A51604CE06D496431BC
:100BE000884206D16C49496841F470016A4A5160F3
:100BF00041E068497831884206D16749496841F047
:100C00007061654A516036E06449884208D1A0F1BC
:100C10000401096841F00F01A0F1040211602AE00B
:100C20005E491431884206D15D49096841F0F001FE
:100C30005B4A11601FE059492831884206D1584962
:100C4000096841F47061564A116014E053493C311F
:100C5000884206D15249096841F47041504A1160F6
:100C600009E04E495031884205D14D49096841F4A7
:100C700070214B4A1160704710B54FF000020268B6
:100C800047F6F07322EA03020C6A8B6843EA040316
:100C90000C6943EA04034C6943EA04038C6943EAA0
:100CA0000403CC6943EA04034C6A43EA04038C6AF4
:100CB00043EA040343EA02020260CB6843600B6824
:100CC00083604B68C36010BD4FF00001016041605C
:100CD0008160C160016141618161C1610162416204
:100CE0008162704721B1026842F00102026005E0B2
:100CF00002684FF6FE7302EA03020260704722B1F7
:100D0000036843EA0103036003E0036823EA010385
:100D100003607047416070470146486880B2704781
:100D200001464FF00000024611F0805F02D01D4BDB
:100D30001A6801E0184B1A680A4202D04FF001000D
:100D400001E04FF00000704710F0805F02D01449BE
:100D5000086001E010494860704701464FF000000C
:100D6000024611F0805F02D00E4B1A6801E00A4B78
:100D70001A680A4202D04FF0010001E04FF0000073
:100D8000704710F0805F02D00549086001E0024919
:100D9000486070470800024000000240080402401A
:100DA00004040240000402404FF000004A49086079
:100DB00001F10401086001F10401086001F104017E
:100DC000086046484649086070474FF000014249B4
:100DD0008279002A40D00A461268036822EA030298
:100DE0000B461A6001F104021268036822EA03024A
:100DF00001F104031A60027911440A68036842EAA7
:100E000003020A60374A1268036822EA0302354B7C
:100E10001A6003F104021268036822EA0302324BEB
:100E20001A604279102A0ED12E4A1268036842EAEB
:100E300003022C4B1A602C4A1268036842EA030230
:100E4000294B1A600FE02449427911440A6803686B
:100E500042EA03020A6006E0027911440A68036864
:100E600022EA03020A6070474FF00001016001713D
:100E70004FF00C0141714FF00001817170471B4927
:100E8000096841EA0001194A1160704701464FF0B4
:100E90000000134A12680A4202D04FF0010001E03C
:100EA0004FF0000070470E490860704701464FF050
:100EB00000000246084B1B6803EA0102084B1B684E
:100EC0000B4203D012B14FF0010001E04FF00000DF
:100ED000704703490860704700040140FFFF0F009E
:100EE00014040140080401400C04014010040140B6
:100EF00010B50446DE48844208D10121042000F0E8
:100F00007FFB0021042000F07BFB46E0D9488442AF
:100F100008D10121082000F073FB0021082000F017
:100F20006FFB3AE0D448844208D10121102000F040
:100F300067FB0021102000F063FB2EE0CF488442C5
:100F400008D10121202000F05BFB0021202000F0CF
:100F500057FB22E0CA48844208D10121402000F01A
:100F60004FFB0021402000F04BFB16E0C5488442B7
:100F700008D10121802000F043FB0021802000F0F7
:100F80003FFB0AE0C048844207D10121801500F0F0
:100F900037FB0021A01500F033FB10BD10B5012177
:100FA000084600F02DFB0021012000F029FB10BDB8
:100FB0002DE9F04102464FF000052E462846034633
:100FC0000446074691F803C00CF00F0591F803C0E2
:100FD0001CF0100F03D091F802C04CEA0505B1F8DF
:100FE00000C01CF0FF0F35D014684FF000002EE059
:100FF0004FF0010C0CFA00F3B1F800C00CEA030644
:101000009E4222D14FEA80034FF00F0C0CFA03F7F7
:1010100024EA070405FA03FC4CEA040491F803C02F
:10102000BCF1280F06D14FF0010C0CFA00FCC2F8FD
:1010300014C00AE091F803C0BCF1480F05D14FF08D
:10104000010C0CFA00FCC2F810C000F101000828E5
:10105000CED31460B1F800C0BCF1FF0F38DD546886
:101060004FF0000031E000F1080C4FF0010808FAE1
:101070000CF3B1F800C00CEA03069E4223D14FEAFC
:1010800080034FF00F0C0CFA03F724EA070405FA6B
:1010900003FC4CEA040491F803C0BCF1280F05D10D
:1010A00000F1080C08FA0CF8C2F8148091F803C09B
:1010B000BCF1480F07D100F1080C4FF0010808FA05
:1010C0000CF8C2F8108000F101000828CBD354605E
:1010D000BDE8F0814FF6FF7101804FF00201817091
:1010E0004FF00401C170704702464FF00000936852
:1010F0000B4202D04FF0010001E04FF000007047BA
:101100000146886880B2704702464FF00000D368FD
:101110000B4202D04FF0010001E04FF00000704799
:101120000146C86880B270470161704741617047ED
:101130000AB1016100E041617047C16070474FF43E
:10114000803242EA01028261816182618269826940
:10115000704702464FF000004C4B18684FF6807302
:1011600000EA030040EA021040EA0100474B186021
:1011700070474749C8617047F0B50A464FF0000311
:101180001C4619460D4600F00046B6F1004F02D14C
:101190003E4EF16901E03D4E7168C0F3034583B2F4
:1011A00000F44016B6F5401F08D121F07061374EAB
:1011B000766826F07066354F7E6017E000F4801682
:1011C000B6F5801F08D14FF0030606FA05F421EAB0
:1011D000040141F0706109E04FEA50564FEA0616EB
:1011E00003FA06F621EA060141F070613AB14FEACE
:1011F00050564FEA061603FA06F646EA010100F0D9
:101200000046B6F1004F02D1204EF16101E01F4EC1
:101210007160F0BD30B54FF000024FEA81734FEAC4
:1012200013744FF00F0303FA04F21A4B4FEAA104B0
:1012300053F8243023EA0203164C4FEAA10544F880
:10124000253023464FEAA10453F824304FEA817435
:101250004FEA147400FA04F443EA04030D4C4FEA15
:10126000A10544F8253030BD0B49086070470000E7
:1012700000080140000C0140001001400014014032
:1012800000180140001C0140002001400000014006
:101290000000204208000140DC002042F7480068BE
:1012A00040F00100F549086008464068F44900EA4A
:1012B0000100F249486008460068F24900EA01006E
:1012C000EE4908600846006820F48020086008465F
:1012D000406820F4FE0048604FF41F0088607047AB
:1012E000E649096821F48031E44A11601146096831
:1012F00021F480211160B0F5803F03D0B0F5802F3C
:101300000ED106E0DD49096841F48031DB4A116005
:1013100007E0DA49096841F4A021D84A116000E0E9
:1013200000BF00BF704710B501464FF000021346E2
:1013300010464FEA6112012A02D1D04C236806E020
:10134000022A02D1CD4C236A01E0CC4C636A01F041
:101350001F024FF0010404FA02F41C4202D04FF0C5
:10136000010001E04FF0000010BD70B54FF0000427
:101370002546264600BF3120FFF7D5FF064604F17B
:101380000104B4F5A06F01D0002EF4D03120FFF796
:10139000CAFF10B14FF0010501E04FF000052846EB
:1013A00070BD01464FF00000B44A106820F0F8000C
:1013B00040EAC10010607047B349086070470246B8
:1013C0004FF00000AD4B586820F47C1042EA010356
:1013D00043EA0000A94B58607047AB490866704764
:1013E00001464FF00000A54A506820F0030040EA93
:1013F000010050607047A148406800F00C00704741
:1014000001464FF000009D4A506820F0F00040EA8D
:1014100001005060704701464FF00000974A506845
:1014200020F4E06040EA01005060704701464FF050
:101430000000924A506820F4605040EAC1005060B9
:10144000704731B18D4A527A42EA00028B4B5A7290
:1014500008E08A4A527A6FEA0003DBB202EA03022A
:10146000864B5A72704789490860704701464FF0B1
:101470000000824A506820F4404040EA0100506079
:1014800070474FF00001824A11707C4A82F82010A8
:10149000012802D004280AD104E04FF001017C4A5F
:1014A000117005E04FF00501794A117000E000BFAE
:1014B00000BF70477749086070477049096A41EA80
:1014C00000016E4A1162704773490860704730B579
:1014D0004FF000010A460C460B46684D6D6805F05A
:1014E0000C0121B1042905D0082927D105E06B4D55
:1014F000056026E0694D056023E0604D6D6805F4E8
:1015000070125E4D6D6805F480344FF0020505EBF6
:10151000924224B9624D02FB05F505600DE0574D7E
:101520006D6815F4003F04D05D4D02FB05F50560C4
:1015300003E05A4D02FB05F5056002E0574D0560DA
:1015400000BF00BF4D4D6D6805F0F0014FEA11116D
:10155000544D6B5C056825FA03F54560474D6D6891
:1015600005F4E0614FEA11214E4D6B5C456825FAA8
:1015700003F58560414D6D6805F460514FEAD12156
:10158000484D6B5C456825FA03F5C5603B4D6D68B9
:1015900005F440414FEA9131434D6B5CC568B5FBA2
:1015A000F3F5056130BD31B1344A526942EA0002B7
:1015B000324B5A6105E0314A526922EA00022F4B50
:1015C0005A61704731B12D4A926942EA00022B4BB1
:1015D0009A6105E0294A926922EA0002274B9A6142
:1015E000704731B1254AD26942EA0002234BDA61E1
:1015F00005E0224AD26922EA0002204BDA617047F4
:1016000031B11E4AD26842EA00021C4BDA6005E0A2
:101610001A4AD26822EA0002184BDA60704731B1E8
:10162000164A126942EA0002144B1A6105E0134A95
:10163000126922EA0002114B1A6170471B490860C7
:1016400070471149C86470470C49C87170470B480E
:10165000406A40F0807009494862704701464FF087
:101660000000064A92680A4202D04FF0010001E0F1
:101670004FF0000070470149887270470010024027
:101680000000FFF8FFFFF6FE00004242D800424291
:1016900020100240800442423C04424200127A0080
:1016A00000093D00180000202800002040044242AC
:1016B00010B50446F848844209D101218803FFF798
:1016C0009FFF00214FF48040FFF79AFF32E0F3487C
:1016D000844209D101214804FFF7A1FF00214FF402
:1016E0000030FFF79CFF25E0ED48844209D101213D
:1016F0008804FFF794FF00214FF48020FFF78FFF4D
:1017000018E0E848844209D10121C804FFF787FFA7
:1017100000214FF40020FFF782FF0BE0E2488442F3
:1017200008D101210805FFF77AFF00214FF480104E
:10173000FFF775FF10BD2DE9F04786B005460E4650
:101740004FF00004A24600BFA1462746B08900B171
:1017500000BF2F462C8A4CF6FF7004EA0004F08884
:1017600040EA04042C82AC894EF6F31004EA00042B
:10177000B088318940EA0100718940EA010040EAFD
:101780000404AC81AC8A4FF6FF4004EA0004B0893F
:1017900040EA0404AC8201A8FFF799FEBE488742E4
:1017A00002D1DDF810A001E0DDF80CA0A88910F44A
:1017B000004F09D00AEBCA0000EB0A1031684FEA6B
:1017C0004101B0FBF1F808E00AEBCA0000EB0A1097
:1017D00031684FEA8101B0FBF1F84FF06400B8FBCB
:1017E000F0F04FEA00144FEA14104FF0640101FBCF
:1017F0001089A88910F4004F0AD04FF0320000EB96
:10180000C900B0FBF1F000F0070040EA04040BE06F
:101810004FF0320000EB09104FF06401B0FBF1F023
:1018200000F00F0040EA04042C8106B0BDE8F08708
:101830004FF4165101604FF000018180C180018199
:101840004FF00C0141814FF000018181704710B5CC
:1018500002464FF00000108A4FF2FF0300EA030037
:101860000B884C8843EA04038C8843EA0403CC8841
:1018700043EA040343EA0000108210BD4FF0000168
:10188000018041808180C180704721B1828942F40A
:101890000052828105E082894DF6FF7302EA03025D
:1018A00082817047F0B503464FF000042646254676
:1018B0002046A1F510676A3F00D100BF1846C1F36A
:1018C000421401F01F064FF0010707FA06F5012C3C
:1018D00002D100F10C0006E0022C02D100F1100050
:1018E00001E000F1140022B1076847EA050707602C
:1018F00003E0076827EA05070760F0BD10B522B1CD
:10190000838A43EA0103838206E0838A6FEA010443
:10191000A4B203EA0403838210BD028A4FF6F07377
:1019200002EA03020282028A42EA0102028270474C
:1019300082894FF2FF7302EA03028281828942EABE
:1019400001028281704721B1828942F002028281C4
:1019500005E082894FF6FD7302EA03028281704737
:10196000028A4FF6DF7302EA03020282028A42EA27
:1019700001020282704721B1028A42F4804202824F
:1019800005E0028A4BF6FF7302EA03020282704707
:10199000C1F308028280704701468888C0F30800BE
:1019A0007047818941F0010181817047028BD2B279
:1019B0000283028B42EA012202837047028B02F407
:1019C0007F420283028B42EA01020283704721B107
:1019D000828A42F02002828205E0828A4FF6DF731B
:1019E00002EA03028282704721B1828A42F0100229
:1019F000828205E0828A4FF6EF7302EA0302828256
:101A0000704721B1828A42F00802828205E0828A10
:101A10004FF6F77302EA03028282704721B182898E
:101A200042F40042828103E08289C2F30E02828185
:101A3000704721B1828A42F40062828205E0828A84
:101A40004FF2FF7302EA030282827047828A4FF6E6
:101A5000FB7302EA03028282828A42EA01028282E4
:101A6000704721B1828A42F00202828205E0828AB6
:101A70004FF6FD7302EA03028282704702464FF07E
:101A80000000B1F5007F00D100BF13880B420DD0DC
:101A90004FF001000CE0000000380140004400401D
:101AA00000480040004C0040005000404FF0000053
:101AB000704701F40072B2F5007F00D100BF6FEAF9
:101AC00001020280704770B502464FF000042346C1
:101AD0001D461846A1F510666A3E00D100BFC1F34D
:101AE000421501F01F034FF0010606FA03F3012D22
:101AF00003D1968906EA030308E0022D03D1168A72
:101B000006EA030302E0968A06EA03034FEA212469
:101B10004FF0010606FA04F4168806EA04041BB125
:101B200014B14FF0010001E04FF0000070BD10B59E
:101B30004FF000021346A1F510646A3C00D100BFCB
:101B40004FEA21224FF0010404FA02F4A3B26FEA33
:101B50000304048010BD000008B501210420FFF734
:101B600031FD01211020FFF72DFD4FF48050ADF81D
:101B700000004FF010008DF803004FF003008DF8C7
:101B8000020069460E48FFF713FA4FF480510C48E3
:101B9000FFF7CCFA4FF40070ADF800004FF01000E2
:101BA0008DF803004FF003008DF8020069460548E8
:101BB000FFF7FEF94FF400710248FFF7B7FA08BDCE
:101BC0000008014000100140014600BF704700BFFF
:101BD000284A128812F0400FFAD0C2B2264B1A805F
:101BE000704730B585B005460C464FF0010144F210
:101BF0000500FFF7E7FC4FF40070ADF810004FF060
:101C000003008DF812004FF018008DF8130004A99E
:101C10001A48FFF7CDF94FF48060ADF810004FF08F
:101C200004008DF8130004A91448FFF7C1F90094CB
:101C30004FF00000ADF80400ADF80600ADF8080064
:101C4000ADF80C004FF00C00ADF80A0069462846CC
:101C5000FFF771FD01212846FFF717FE05B030BDE3
:101C600070B504460D4629462046FFF791FE70BD2B
:101C7000704700000038014004380140000801406E
:101C800000B587B001214FF40770FFF79BFC4FF4BC
:101C90000040FFF7EBFB4FF0FF00ADF804004FF002
:101CA00000008DF8070001A94048FFF781F94FF0C7
:101CB0000300ADF804004FF000008DF8070001A903
:101CC0003B48FFF775F93B48FEF7DAFC4FF00000A0
:101CD00002904FF001008DF80C008DF80D004FF4CC
:101CE000602004904FF0000005904FF00A008DF83E
:101CF000180002A92F48FEF7EAFC05230122002163
:101D00002C48FEF794FD0523022201212948FEF705
:101D10008EFD0523032202212648FEF788FD0523B8
:101D2000042203212348FEF782FD05231A460421DD
:101D30002048FEF77CFD0523062219461D48FEF7C4
:101D400076FD0523072206211A48FEF770FD0523BC
:101D5000082207211748FEF76AFD052309220821FA
:101D60001448FEF764FD05230A2209211148FEF7F5
:101D70005EFD01210F48FEF7EBFC01210D48FEF747
:101D8000DCFC0C48FEF7FEFC00BF0A48FEF7FFFC37
:101D90000028FAD10748FEF707FD00BF0548FEF707
:101DA00008FD0028FAD107B000BD0000000801407E
:101DB000000C0140002401402DE9F04107460C468B
:101DC00015461E464FF001010846FFF7ECFB38466A
:101DD000FEF7C2FE1148046045604FF000000F4955
:101DE00088600846C6604FF0000008614FF0800030
:101DF00048614FF4807088614FF48060C8614FF093
:101E0000200008624FF4005048624FF000008862E2
:101E10003846FEF731FFBDE8F0810000EC010020FC
:101E20001FB501212B48FFF7A7F901210520FFF776
:101E3000C9FB4FF40060ADF80C004FF004008DF8C2
:101E40000F0003A92448FFF7B3F84FF400612248BC
:101E5000FFF76AF90B210020FFF7DCF94FF400606F
:101E600001904FF000008DF808004FF00C008DF845
:101E700009004FF001008DF80A0001A8FEF7A5FF48
:101E80004FF028008DF800004FF002008DF801009F
:101E90004FF001008DF802008DF803006846FEF750
:101EA00075FB1FBD10B54FF480510B48FFF73CF98F
:101EB0000A2000F082F84FF40060FEF7F7FF18B137
:101EC0004FF00100054908704FF40060FFF701F87A
:101ED00010BD00000002300000080140000000209A
:101EE00008B501210820FFF76DFB4FF40040ADF865
:101EF00000004FF003008DF802004FF048008DF80D
:101F0000030069462048FFF753F84FF48040ADF8CE
:101F1000000069461C48FFF74BF84FF40050ADF83D
:101F2000000069461848FFF743F84FF48050ADF8B9
:101F3000000069461448FFF73BF808BD2DE9F04161
:101F40004FF400411048FFF7CFF804464FF48041AA
:101F50000D48FFF7C9F805464FF400510A48FFF74E
:101F6000C3F806464FF480510748FFF7BDF807460F
:101F700044EA450040EA860040EAC70000F0FF0856
:101F80004046BDE8F0810000000C014010B5044659
:101F90006FF00400FEF751FB4FEAE47104EB51715E
:101FA0004FEAE101244A1170104600784FF47A712B
:101FB00000FB01F02149088010BD01461F4A12882C
:101FC00001FB02F24FF0E0235A614FF000029A61E8
:101FD0004FF001021A6100BF4FF0E022106910F0CB
:101FE000010F02D010F4803FF6D04FF000024FF006
:101FF000E0231A619A61704701460F4A127801FB8B
:1020000002F24FF0E0235A614FF000029A614FF064
:1020100001021A6100BF4FF0E022106910F0010FB9
:1020200002D010F4803FF6D04FF000024FF0E023D2
:102030001A619A61704700002C0000202E000020D9
:1020400010B54FF4A060FEF79BFA10BD2DE9FC41DE
:1020500004460D464FF0FF004FF0000238E0A65C4A
:102060004FF0000308E006F001070DF803704FEA97
:10207000660603F10107FBB2082BF4DB4FF0000109
:1020800021E0C1F107071DF807704FEAC7774FEA53
:102090001767C1F1070C0DF80C70C1F107071DF8A7
:1020A000077087EA000717F0800F05D04FF01D0773
:1020B00087EA4007F8B203E04FEA40674FEA17604B
:1020C00001F10107F9B20829DBDB02F10107FAB2DD
:1020D000AA42C4DB80F0FF00BDE8FC817047704776
:1020E000704770477047754600F028F8AE46050007
:1020F0006946534620F00700854618B020B5FEF724
:102100002DFABDE820404FF000064FF000074FF0D9
:1021100000084FF0000B21F00701AC46ACE8C00905
:10212000ACE8C009ACE8C009ACE8C0098D4670470E
:102130000446AFF300802046FEF721F800487047C0
:1021400018020020004870471C02002010B5FFF75D
:10215000F9FF4FF00001016010BD00007C21000874
:10216000000000203000000028010008AC21000819
:102170003000002048080000440100080000000072
:1021800000A24A0400000000000000000102030455
:10219000060708090000000001020304010203040D
:0C21A00006070809020406080000000001
:04000005080000ED02
:00000001FF
